:020000040800F2
:10000000100C0020DD010008671C00085F1C0008C0
:10001000631C000859060008412E0008000000007B
:10002000000000000000000000000000192A000885
:10003000E5060008000000003D2300089D2A000896
:10004000F7010008F7010008F7010008F7010008B0
:10005000F7010008F7010008F7010008F7010008A0
:10006000F7010008F7010008F7010008F701000890
:10007000F7010008F7010008F7010008F701000880
:10008000F7010008F7010008F7010008F701000870
:10009000F7010008F7010008F7010008F701000860
:1000A000F7010008F7010008F7010008F701000850
:1000B000F7010008F7010008F7010008F701000840
:1000C000F7010008F7010008F7010008F701000830
:1000D000F7010008012E0008F7010008F7010008E9
:1000E000F7010008F7010008F7010008F701000810
:1000F000F7010008F7010008F7010008F701000800
:10010000F7010008F7010008F7010008F7010008EF
:10011000F7010008F7010008F7010008F7010008DF
:10012000F7010008F7010008F7010008F7010008CF
:1001300000F002F800F042F80AA090E8000C8244B7
:100140008344AAF10107DA4501D100F037F8AFF294
:10015000090EBAE80F0013F0010F18BFFB1A43F0A5
:10016000010318479C300000BC300000103A24BF47
:1001700078C878C1FAD8520724BF30C830C144BF0C
:1001800004680C607047000000230024002500264E
:10019000103A28BF78C1FBD8520728BF30C148BFEA
:1001A0000B607047642900F06F80782900F0A88008
:1001B000002070471FB51FBD10B510BD00F01AFA22
:1001C0001146FFF7F7FF02F09DFF00F038FA03B485
:1001D000FFF7F2FF03BC02F07CFE000009488047F5
:1001E00009480047FEE7FEE7FEE7FEE7FEE7FEE719
:1001F000FEE7FEE7FEE7FEE704480549054A064B31
:1002000070470000A52A00083101000810060020F0
:10021000100C00201008002010080020704700007B
:100220000FB4044910B503AA029800F0B5F910BC48
:100230005DF814FB1400002070B504468569006861
:10024000C10601D5302600E02026C00707D070BDCA
:10025000D4E9012130469047206A401C20626D1E7F
:10026000F6D570BD70B5044685690078C00707D122
:1002700070BDD4E9012120209047206A401C2062F3
:100280006D1EF6D570BD00002DE9F0410646002434
:1002900010687529314616A510D0AFF300800028EC
:1002A00002DA404213A507E031688A0701D512A59A
:1002B00002E0490704D511A5012401E0AFF3008055
:1002C00000210A2206F1240709E0B0FBF2FCB0FB92
:1002D000F2F302FB1C00303078541846491C002809
:1002E000F3D123462A463046BDE8F04100F0FBB882
:1002F000000000002D0000002B0000002000000086
:1003000070B504460D4621461068AFF30080218881
:10031000090502D50F4A7A4402E00E4A7A440E32A9
:10032000002104F1240305E000F00F060009965DAA
:100330005E54491C0028F7D120780023000704D51B
:10034000702D02D009B1022311322046BDE8704061
:1003500000F0C9B8AA2E00002DE9F05F89460446D6
:100360004FF0000ADFF824B1FB44C0F820A020467B
:10037000E168884700287DD0252806D0D4E90121EE
:100380009047206A401C2062F1E700255F46204626
:10039000E16888472028064607DB312E05D2B819C8
:1003A00010F8200C08B10543F1E7A80701D525F0A6
:1003B0000405C4F81CA00027C4F818A02A2E09D0F0
:1003C000304602F07FFD38B304EB8708303EC8F8B2
:1003D000186019E059F8041B204604EB870291616C
:1003E000E1688847012F064618D1E069002820DA25
:1003F00025F020051DE0D8F8180000EB800006EB82
:1004000040003038C8F818002046E16888470646A2
:1004100002F058FD0028EED1012F0AD02E2E08D16F
:100420002046E16888477F1C0646022F45F02005DC
:10043000C4DBA069002803DA404245F00105A06151
:10044000E80701D025F01005A6B1A6F14100192852
:1004500002D8203645F400654A46314620462560DC
:100460004D46FFF79FFE60B1012807D0ED1D25F036
:10047000070000E007E000F1080978E705F104094A
:1004800075E730467AE7206ABDE8F09F802E0000CD
:100490004FF0000200B5134694469646203922BF1D
:1004A000A0E80C50A0E80C50B1F12001BFF4F7AF68
:1004B000090728BFA0E80C5048BF0CC05DF804EB4A
:1004C000890028BF40F8042B08BF704748BF20F8B8
:1004D000022B11F0804F18BF00F8012B70477047B6
:1004E0007047704770472DE9F0470D469946924690
:1004F000044600F124080168880604D5E06921F06B
:100500001001216000E00120A84201DD471B00E04E
:100510000027A1697A1902EB0900081AA061207866
:10052000C00602D42046FFF787FE002608E0D4E983
:1005300001211AF806009047206A401C761C2062B0
:100540004E45F4DB2078C0060AD52046FFF774FE3E
:1005500006E0D4E9012130209047206A401C206247
:10056000381EA7F10107F4DC07E0D4E9012118F8EF
:1005700005009047206A401C2062281EA5F1010555
:10058000F3DC2046FFF76EFE2078000602D502203D
:10059000BDE8F0870120FBE7074B70B50D467B44B3
:1005A00000F011F80446284600F020F810B14FF092
:1005B000FF3070BD204670BDAB29000001694A1CA8
:1005C00002610878704700B58FB0CDE90131002194
:1005D000059105497944CDE9031011466846FFF7B6
:1005E000BBFE0FB000BD0000E5FFFFFF007B00F089
:1005F00080007047754600F02BF8AE46050069464E
:10060000534620F00700854618B020B5FFF7F4FDEB
:10061000BDE820404FF000064FF000074FF0000803
:100620004FF0000B21F00701AC46ACE8C009ACE884
:10063000C009ACE8C009ACE8C0098D46704710B5E8
:100640000446AFF300802046BDE81040FFF7BFBD71
:1006500000487047B005002000BFFEE72DE9F041DB
:100660000746884615460421052000F02DF8002194
:10067000012002F0E7FB80210A2002F0CEF90024DD
:1006800005E0395D092002F0DDFB601CC4B2444581
:10069000F7DB0321012002F0D5FBFF2400BF05207A
:1006A00002F092F80646601EC4B21CB106F00400C7
:1006B0000028F4D0222002F087F82870212002F0D0
:1006C00083F86870BDE8F08170B505460C460026D9
:1006D000284602F079F8064626EA0401284602F088
:1006E000B1FB70BD7047000070B50446002594F85A
:1006F0002100022803D00420A0630125C1E0206866
:10070000006820F00E00216808602068006820F072
:100710000100216808605C492068884252D95A4922
:1007200078392068884201D1012047E05649643970
:100730002068884201D1102040E053495039206898
:10074000884201D1801539E04F493C392068884200
:1007500001D1801432E04C4928392068884202D106
:100760004FF480302AE0484914392068884202D189
:100770004FF4801022E044492068884201D14004AF
:100780001CE042492068884201D1012016E03F491F
:1007900014312068884201D110200FE03B492831F4
:1007A0002068884201D1801508E038493C31206832
:1007B000884201D1801401E04FF480303349091F91
:1007C000086051E0304978392068884201D1012021
:1007D00047E02D4964392068884201D1102040E06B
:1007E000294950392068884201D1801539E02649CD
:1007F0003C392068884201D1801432E022492839EE
:100800002068884202D14FF480302AE01E49143912
:100810002068884202D14FF4801022E01A492068F3
:10082000884201D140041CE018492068884201D167
:10083000012016E0154914312068884201D11020AA
:100840000FE0124928312068884201D1801508E064
:100850000E493C312068884201D1801401E04FF4F8
:100860008030094980394860012084F8210000BFA8
:10087000002084F8200000BF606B10B12046616B3F
:100880008847284670BD00008000024008040240EE
:1008900070B5044600F0BEF906462546681C10B146
:1008A00004480078054400BF00F0B4F9801BA8425A
:1008B000FAD370BD080000202DE9F8470246002356
:1008C0009C467BE14FF0010808FA03F4D1F8008060
:1008D00008EA0400A0427DD1DFF8F4A2D1F8048038
:1008E000A8EB0A09D0453AD014DCB8F1030F50D078
:1008F00009DCB8F1000F31D0B8F1010F1CD0B8F10C
:10090000020F49D120E0B8F1110F18D0B8F1120F41
:1009100042D11EE0B9F5881F25D006DCB9F5803F2D
:1009200020D0B9F5801F37D11AE0B9F5001F18D0D3
:10093000B9F5041F30D117E0D1F80CC02DE0D1F883
:100940000C8008F1040C28E0D1F80C8008F1080CA8
:1009500023E0D1F80C8008F10C0C1EE000BF00BFB2
:1009600000BF00BF00BF00BFD1F80880B8F1000F82
:1009700002D14FF0040C0BE0D1F80880B8F1010F60
:1009800003D14FF0080C146102E04FF0080C5461E1
:1009900003E04FF0000C00E000BF00BFFF2801D8CB
:1009A000904601E002F104084646FF2802D84FEACB
:1009B000830803E0A3F108084FEA88084746D6F801
:1009C00000804FF00F0909FA07F928EA09080CFA24
:1009D00007F900E07AE048EA0908C6F80080D1F893
:1009E000048008F08058B8F1805F6FD100BFDFF855
:1009F000E481D8F8188048F00108DFF8D891C9F8E8
:100A00001880C846D8F8188008F00108CDF8008092
:100A100000BF00BF4FEAB9384FEA930958F8295090
:100A20004FEA83784FEA18794FF00F0808FA09F86F
:100A300025EA0805DFF8A081424502D14FF0000801
:100A400024E0DFF89881424502D14FF001081DE013
:100A5000DFF88C81424502D14FF0020816E0DFF842
:100A60008481424502D14FF003080FE0DFF878811E
:100A7000424502D14FF0040808E0DFF8708142459A
:100A800002D14FF0050801E04FF006084FEA8379E4
:100A90004FEA197908FA09F848EA0505DFF85081A4
:100AA0004FEA930948F82950D1F8048008F48038B7
:100AB000B8F5803F0BD1DFF83C81D8F8008048EAD8
:100AC0000008DFF83091C9F800800AE075E0DFF82F
:100AD0002481D8F8008028EA0008DFF81891C9F8C6
:100AE0000080D1F8048008F40038B8F5003F0ED13A
:100AF000DFF8008108F10408D8F8008048EA00080F
:100B0000DFF8F09009F10409C9F800800DE0DFF882
:100B1000E48008F10408D8F8008028EA0008DFF82B
:100B2000D49009F10409C9F80080D1F8048008F4D0
:100B30008018B8F5801F0ED1DFF8B88008F10808DA
:100B4000D8F8008048EA0008DFF8A89009F1080901
:100B5000C9F800800DE0DFF89C8008F10808D8F89B
:100B6000008028EA0008DFF88C9009F10809C9F82C
:100B70000080D1F8048008F40018B8F5001F0ED1E9
:100B8000DFF8708008F10C08D8F8008048EA000807
:100B9000DFF8609009F10C09C9F800800DE0DFF87A
:100BA000548008F10C08D8F8008028EA0008DFF823
:100BB000449009F10C09C9F800805B1CD1F8008051
:100BC00028FA03F8B8F1000F7FF47CAEBDE8F8878F
:100BD000000011100010024000080140000C01400C
:100BE000001001400014014000180140001C0140A9
:100BF0000800014000040140024693680B400BB11D
:100C0000012000E0002070470AB1016101E00B04FF
:100C10000361704701480068704700000000002031
:100C2000034800680349097808440149086070478F
:100C3000000000200800002010B50848006840F0BF
:100C4000100006490860052000F080F80F2000F031
:100C500007F800F02BF8002010BD00000020024033
:100C600070B504460E4800784FF47A71B1FBF0F08D
:100C70000C490968B1FBF0F5284600F01AFE08B1EE
:100C8000012070BD102C07D200222146501E00F01A
:100C90001EF80548046001E00120F2E70020F0E7BB
:100CA000080000200C0000200400002070470146CE
:100CB0000846002809DB00F01F0301229A4043097F
:100CC0009B0003F1E023C3F8002100BF70472DE92A
:100CD000F05F80460D461646002702F0D7F807461B
:100CE00039462A46334601F00700C0F1070ABAF137
:100CF000040F02D94FF0040A01E0C0F1070AD146FF
:100D000000F1040ABAF1070F02D24FF0000A01E025
:100D1000A0F1030AD4464FF0010A0AFA09FAAAF12F
:100D2000010A0AEA020A0AFA0CFA4FF0010B0BFA5E
:100D30000CFBABF1010B0BEA030B4AEA0B04214657
:100D4000404602F0ABF8BDE8F09F000000BF00F0A5
:100D50000702064B19684FF6FF031940044B0B437B
:100D600043EA0221014B196000BF70470CED00E01F
:100D70000000FA0570B504460D460CB9012070BD9F
:100D80005A48006800F00700A8420ED25748006891
:100D900020F007002843554908600846006800F025
:100DA0000700A84201D00120E9E7207800F0020006
:100DB00002281DD1207800F00400042805D14C48F9
:100DC000406840F4E0604A494860207800F008003C
:100DD000082805D14648406840F4605044494860BE
:100DE0004348406820F0F000A1680843404948604B
:100DF000207800F0010078B36068012806D13C48F3
:100E0000006800F4003090B90120B8E7606802285B
:100E100006D13748006800F0007040B90120AEE705
:100E20003348006800F0020008B90120A7E7304805
:100E3000406820F00300616808432D494860FFF7CF
:100E4000E9FE064609E0FFF7E5FE801B41F2883126
:100E5000884202D9032092E707E02548406800F065
:100E60000C006168B0EB810FEDD12048006800F004
:100E70000700A8420ED91D48006820F0070028434B
:100E80001A4908600846006800F00700A84201D02F
:100E9000012074E7207800F00400042807D11448EA
:100EA000406820F4E060E168084311494860207818
:100EB00000F00800082808D10D48406820F4605070
:100EC000216940EAC1000A49486000F03FF808493A
:100ED0004968C1F30311074A515CC84006490860DC
:100EE00006480068FFF7BCFE002048E700200240EB
:100EF00000100240AC3100080C000020040000206B
:100F000001480068704700000C00002000B5FFF7A2
:100F1000F7FF04494968C1F30221034A515CC84004
:100F200000BD000000100240BC31000800B5FFF712
:100F3000E7FF04494968C1F3C221034A515CC84034
:100F400000BD000000100240BC310008F0B585B0C3
:100F50000FF26C0C9CE8E01001A8A0E8E0101CA5C2
:100F60002D68009500210022002300240020194D47
:100F7000696801F00C05F5B1042D02D0082D19D1D6
:100F800001E0154819E001ADC1F38346AC5D01F401
:100F9000803555B10F4D6D68C5F340451DF80520EE
:100FA0000D4D6543B5FBF2F302E00C4D04FB05F378
:100FB000184602E000BF084800BF00BF05B0F0BD02
:100FC00002030405060708090A0B0C0D0E0F10108A
:100FD000010200000010024000127A0000093D00EA
:100FE000F8B504460CB90120F8BD207800F00100E6
:100FF000002878D0F848406800F00C0004280CD095
:10100000F548406800F00C00082811D1F24840680B
:1010100000F48030B0F5803F0AD1EF48006800F45A
:10102000003000285FD0606800285CD10120DBE739
:1010300000BF6068B0F5803F06D1E748006840F423
:101040008030E549086028E0606858B9E2480068E7
:1010500020F48030E04908600846006820F48020D1
:1010600008601AE06068B0F5A02F0BD1DA4800687C
:1010700040F48020D84908600846006840F4803079
:1010800008600AE0D448006820F48030D249086043
:101090000846006820F48020086000BF606888B1BE
:1010A000FFF7B8FD054606E0FFF7B4FD401B6428D6
:1010B00001D9032098E7C848006800F400300028F0
:1010C000F2D010E0FFF7A6FD054606E0FFF7A2FD0F
:1010D000401B642801D9032086E7BF48006800F45C
:1010E00000300028F2D1207800F00200022857D109
:1010F000B948406800F00C0050B1B748406800F0B3
:101100000C00082818D1B448406800F4803098B921
:10111000B148006800F0020020B12069012801D028
:10112000012061E7AC48006820F0F800616940EAFE
:10113000C100A949086033E02069E8B10120A7494E
:101140000860FFF767FD054606E0FFF763FD401BFB
:10115000022801D9032047E79F48006800F00200F9
:101160000028F2D09C48006820F0F800616940EA4D
:10117000C1009949086013E0002098490860FFF712
:1011800049FD054606E0FFF745FD401B022801D951
:10119000032029E79048006800F002000028F2D1FF
:1011A000207800F0080008282DD1A069B8B10120EE
:1011B0008B490860FFF72EFD054606E0FFF72AFD84
:1011C000401B022801D903200EE78348406A00F043
:1011D00002000028F2D0012001F0E2FA13E0002022
:1011E0007F490860FFF716FD054606E0FFF712FD90
:1011F000401B022801D90320F6E67748406A00F038
:1012000002000028F2D1207800F00400042873D1F5
:1012100000277148C06900F0805070B900BF6E4867
:10122000C06940F080506C49C8610846C06900F050
:101230008050009000BF00BF01276A48006800F49A
:101240008070B0B96748006840F4807065490860F4
:10125000FFF7E0FC054606E0FFF7DCFC401B6428D6
:1012600001D90320C0E65F48006800F480700028C0
:10127000F2D000BFE068012806D15748006A40F06C
:1012800001005549086227E0E06858B95248006AF1
:1012900020F00100504908620846006A20F004006E
:1012A000086219E0E06805280BD14B48006A40F05D
:1012B0000400494908620846006A40F001000862DB
:1012C0000AE04548006A20F00100434908620846E8
:1012D000006A20F00400086200BFE068A0B1FFF7D8
:1012E00099FC054609E0FFF795FC401B41F2883167
:1012F000884202D9032077E622E03748006A00F0EE
:1013000002000028EFD012E0FFF784FC054608E059
:10131000FFF780FC401B41F28831884201D903204D
:1013200062E62D48006A00F002000028F0D1012F8B
:1013300005D12948C06920F080502749C86100BF05
:10134000E069C8B32448406800F00C00082860D069
:10135000E069022848D1002020490866FFF75AFCBE
:10136000054606E0FFF756FC401B022801D9032082
:101370003AE61948006800F000700028F2D1206AAF
:10138000B0F5803F07D11448406820F40030A168D0
:10139000084311494860D4E9080108430E494968E7
:1013A00021F4741108430C49486001200B49086678
:1013B000FFF730FC054607E03DE0FFF72BFC401B44
:1013C000022801D903200FE60348006800F00070EE
:1013D0000028F2D02FE0000000100240000042423E
:1013E0008004424200700040002014490866FFF764
:1013F00011FC054606E0FFF70DFC401B022801D951
:101400000320F1E50E48006800F000700028F2D1DA
:1014100011E0E069012800D1E6E50948466806F4D4
:101420008031206A814204D106F47011606A8142E1
:1014300001D00120D8E50020D6E50000000042429E
:101440000010024010B504460CB9012010BD606ABE
:1014500000B900BFA06AB0F5005F00D100BF94F8EA
:10146000510028B9002084F85000204600F038F8D8
:10147000022084F851002068006820F040002168B4
:101480000860D4E901010843E16808432169084381
:1014900061690843218B01F400710843E169084345
:1014A000216A0843A16A0843216808600421A069F1
:1014B00001EA104021684860A06AB0F5005F02D1DF
:1014C0002168E06A08612068C06920F40060216832
:1014D000C86100206065012084F851000020B5E754
:1014E00010B586B0044600BF00BF2A48806940F4AA
:1014F0008050284988610846806900F48050019036
:1015000000BF00BF00BF00BF00BF0846806940F0B9
:10151000040088610846806900F00400019000BF63
:1015200000BF00BF00BF00BF0846806940F0040054
:1015300088610846806900F00400019000BF00BF88
:1015400000BF00BF00BF0846806940F0040088610A
:101550000846806900F00400019000BF00BF00BF92
:10156000202002900220039004900320059002A9FD
:101570000948FFF7A1F94020029002A90648FFF7A9
:101580009BF98020029002A90348FFF795F906B065
:1015900010BD000000100240000801402DE9FF5F6F
:1015A0000446884691461D460E9E0120029000206A
:1015B000019000BF94F85000012803D1022004B02C
:1015C000BDE8F09F012084F8500000BFFFF722FB28
:1015D000074694F851B060680390AA46BBF1010F2A
:1015E0000BD00398B0F5827F04D1A06810B9BBF18D
:1015F000040F02D0022001903DE1B8F1000F03D0AA
:10160000B9F1000F00D015B90120019033E194F831
:101610005100042802D0052084F8510000206065A4
:10162000C4F83890E587A587C4F83080E586A5869C
:1016300020646064A06AB0F5005F0DD100BF20682F
:10164000006820F40050216808602068006840F4B9
:1016500000502168086000BF2068006800F040006A
:10166000402805D02068006840F0400021680860EC
:10167000E068B0F5006F56D1606810B1BAF1010FA3
:1016800009D1206B00882168C860206B801C206312
:10169000E08E401EE0863FE02068806800F0020097
:1016A00002281CD1E08ED0B10298012817D1206BFE
:1016B00000882168C860206B801C2063E08E401E7B
:1016C000E08600200290E08E48B9A06AB0F5005F85
:1016D00005D12068006840F48050216808602068C7
:1016E000806800F0010068B1E08F58B12068C068E0
:1016F000A16B0880A06B801CA063E08F401EE08778
:1017000001200290FFF786FAC01BB04204D3701C80
:1017100010B103200190AEE0E08E0028BCD1E08F34
:101720000028B9D156E0606810B1BAF1010F09D1B3
:10173000206B007821680873206B401C2063E08ECA
:10174000401EE08640E02068806800F00200022829
:101750001CD1E08ED0B10298012817D1206B0078FF
:1017600021680873206B401C2063E08E401EE086D9
:1017700000200290E08E48B9A06AB0F5005F05D164
:101780002068006840F48050216808602068806804
:1017900000F0010068B1E08F58B12068C068A16B0B
:1017A0000870A06B401CA063E08F401EE087012002
:1017B0000290FFF72FFAC01BB04201D3701C00B992
:1017C00016B90320019056E0E08E0028BBD1E08FCF
:1017D0000028B8D1A06AB0F5005F10D133460122CD
:1017E00011462046009701F095F830B1606D40F049
:1017F00002006065032001903DE02068C068206819
:101800008068C0F30010E8B1204601F053F80128C9
:1018100014D1606D40F00200606500BF2068006870
:1018200020F40050216808602068006840F40050EF
:101830002168086000BF0120019003E04FF6EF70BF
:10184000216888603A463146204601F01FF820B1F1
:1018500001200190202060650DE0A06850B900BF14
:10186000002000902068C068009020688068009088
:1018700000BF00BF00BF012084F8510000BF00205E
:1018800084F8500000BF019899E6042808D14FF071
:10189000E021096941F004014FF0E022116107E005
:1018A0004FF0E021096921F004014FF0E0221161BD
:1018B000704770B504462546681EB0F1807F01D39D
:1018C00001200FE0681E4FF0E02148610F214FF02A
:1018D000FF3001F0E3FA00204FF0E021886107209B
:1018E0000861002070BD704701460022002391F876
:1018F000392091F83A3042EA030070472DE9F04769
:101900000446206805682068C668206847694FF06B
:101910000008C14605F00F08B8F1000F0AD105F024
:10192000200038B106F0200020B1204601F010F967
:10193000BDE8F087B8F1000F6DD007F0010018B9CD
:1019400006F49070002866D005F0010030B106F46E
:10195000807018B1E06B40F00100E06305F0040016
:1019600030B107F0010018B1E06B40F00200E06315
:1019700005F0020030B107F0010018B1E06B40F053
:101980000400E06305F0080030B107F0010018B171
:10199000E06B40F00800E063E06B68B305F0200006
:1019A00028B106F0200010B1204601F0D1F82068DF
:1019B0004069C0F38019E06B00F0080010B9B9F17C
:1019C000000F22D0204601F0A3F82068406900F003
:1019D0004000B0B12068406920F0400021684861B3
:1019E000606B50B11748616B4863606BFEF77CFE1B
:1019F00010B1606B416B88470CE02046FFF773FF26
:101A000008E02046FFF76FFF04E02046FFF76BFF7A
:101A10000020E0638CE705F0800030B106F0800024
:101A200018B1204601F0B8F982E705F0400030B166
:101A300006F0400018B1204601F07AF878E700BFC0
:101A400076E70000FD2A000810B504460CB9012015
:101A500010BDA06900B100E000BF94F8390028B9BA
:101A6000002084F83800204600F028F8242084F86C
:101A700039002068C06820F400502168C860204602
:101A800001F0BAF82068006920F4904021680861EC
:101A90002068406920F02A00216848612068C068F9
:101AA00040F400502168C8600020E063202084F8E2
:101AB000390084F83A000020CAE7000010B586B06B
:101AC000044625492068884244D100BF23488069E4
:101AD00040F00400214988610846806900F0040054
:101AE000019000BF00BF00BF0846806940F48040FD
:101AF00088610846806900F48040019000BF00BF03
:101B000000BF0846806940F001008861084680698E
:101B100000F00100019000BF00BF481502900220B4
:101B20000390012004900320059002A90C48FEF7C1
:101B3000C3FE4FF4806002900020039002A9084881
:101B4000FEF7BAFE2520FFF7B2F803221146252042
:101B5000FFF7BDF806B010BD00380140001002408C
:101B60000008014010B5034693F83A0020282FD111
:101B700001B10AB9012010BD00BF93F83800012857
:101B800001D10220F7E7012083F8380000BF9962F5
:101B90009A85DA850020D863222083F83A0000BFB6
:101BA000002083F8380000BF1868C06840F48070D7
:101BB0001C68E0601868406940F001001C686061C2
:101BC0001868C06840F020001C68E0600020D2E780
:101BD0000220D0E71D4A0168914236D11C4909888C
:101BE00001F4004189BB1A49098801F4804171B1AF
:101BF000184909780A2903D00021154A118024E0E8
:101C00001349098841F40041114A11801DE011492E
:101C100009780D2906D10E49098841F480410C4A02
:101C2000118012E00B490978094A1288C2F30D02AB
:101C3000094B995406490988491C054A11801146E7
:101C40000988C72901DD0021118070470038014053
:101C5000180000201A00002040000020704700BF3C
:101C6000FEE700BFFEE7704730B500240CE000251A
:101C700006E00020074901EBC5010855681CC5B204
:101C8000802DF6DB601CC4B2082CF0DB00F0D6F827
:101C900030BD0000A001002010B55D48806940F013
:101CA00010005B4988610846806940F02000886127
:101CB0000846806940F4807088615648006856493B
:101CC000084054490860084600685449084351498F
:101CD000086050480C30006840F008004D490C3155
:101CE00008600846006840F0400008604FF033305C
:101CF0004B4908600846C06840F0FF00C86049488A
:101D00004068C0F3130047494860084640684649A8
:101D10000843444948600846C06840F46040C860D1
:101D20000120424908604249C1F88C010020414924
:101D30000860642001F0DAF801203F49C1F8BC01D5
:101D40000021AE2000F0A0F80021D52000F09CF882
:101D50000021502000F098F80021A82000F094F80D
:101D600000213F2000F090F80021D32000F08CF8F3
:101D70000021084600F088F80021402000F084F897
:101D800000218D2000F080F80021142000F07CF864
:101D90000021202000F078F80021022000F074F8E3
:101DA0000021A12000F070F80021C02000F06CF8A4
:101DB0000021DA2000F068F80021122000F064F819
:101DC0000021812000F060F80021EF2000F05CF895
:101DD0000021D92000F058F80021F12000F054F83B
:101DE0000021DB2000F050F80021302000F04CF8FA
:101DF0000021A42000F048F80021A62000F044F8BB
:101E00000021AF2000F040F8FFF72EFF10BD0000CA
:101E10000010024000140140FF0FFFF000300003EB
:101E20000010014000200140000030339881224220
:101E300000802242BC0124420000244230B500242C
:101E40001CE004F1B001C8B2002100F01DF800212F
:101E5000084600F019F80021102000F015F80025C0
:101E600008E0084901EBC501085D012100F00CF80C
:101E7000681CC5B2802DF4DB601CC4B2082CE0DB0A
:101E800030BD0000A00100200C4AD26802F47F425D
:101E9000C3B21A43094BDA60094A11600022094BA8
:101EA000C3F89821084B1A6001221A60044B0C33C6
:101EB0001A60044BC3F88C217047000000100140E9
:101EC0008C81224200802242B801244210B50321B5
:101ED0001420FEF7F9FB10BD10B5142000F074FCBF
:101EE000044604F0030018B90321142000F095FD06
:101EF00010BDF0B587B00546002708210846FEF75B
:101F0000E3FB00210D2000F09DFF80210E20FEF755
:101F1000DBFB93208DF8040020208DF8050006A837
:101F200001AB022201A900900C2000F051F80646F6
:101F300086B9002407E001A8005D285501A8005DCE
:101F40004740601CC4B2042CF5DB01A8005DB84218
:101F500000D0022680210E2000F05FFD304607B041
:101F6000F0BD2DE9F04387B006460F4690469946EE
:101F70008DF804608DF80570002406E018F8041050
:101F800001AAA01C1154601CC4B2062CF6DB00246C
:101F900007E019F8041001AA04F108001154601CAC
:101FA000C4B2062CF5DB06A801AB0C2201A90090F7
:101FB0000E2000F00DF805462DB9082000F004FCB5
:101FC00000F0080000B90225284607B0BDE8F083FC
:101FD0002DE9FE4F0646884691469A46DDF830B018
:101FE000022002900020019000900C2E06D00E2EB0
:101FF00009D1122001901020009005E07720019077
:102000003020009000E000BF00BF019840F0800148
:10201000022000F017FF80210420FEF755FB00216D
:10202000012000F00FFF80210A2000F0F6FC0025BF
:1020300005E018F80510092000F004FF6D1C4D455F
:10204000F7D33146012000F0FDFE0C2E03D1802194
:102050000D2000F0E2FC4FF4487500BF042000F0B2
:10206000B3FB04466D1E35B104F0010018B90098A9
:1020700020400028F2D080210D20FEF725FB95B3EB
:10208000062000F0A1FB00F01B0068BB00200290BE
:102090000198204000F0010008B1012002900C2EB0
:1020A00024D10A2000F090FB04460C2000F08CFBA9
:1020B00000F007072FB1601E07EBC000CBF800004F
:1020C00002E0E000CBF8000004B90124122C00DD8E
:1020D0001224002505E0092000F076FB0AF805002F
:1020E0006D1CA542F7D301E00220029080210C2054
:1020F00000F093FC0021012000F0A4FE0298BDE84E
:10210000FE8FF0B587B005460E4630208DF80400EE
:102110008DF805500DF10602022101A8FEF79EFA86
:1021200006A801AB042201A900900C20FFF750FF84
:10213000074667B90698902809D1002404E001A851
:10214000005D3055601CC4B2102CF8DB00E00227A3
:10215000384607B0F0BD70B588B005460C4608217A
:102160000846FEF7B1FA07210D2000F06BFE0321AF
:10217000142000F052FC8DF8085007A802AB012291
:1021800002A900900C20FFF723FF06464EB90798DE
:10219000102806D19DF8080020709DF80900607095
:1021A00000E00226304608B070BD000010B50122E4
:1021B00020212048FEF728FD0A2000F097FE00228B
:1021C00020211C48FEF720FD3C2000F08FFE01225C
:1021D00020211848FEF718FD4FF4FA7000F086FE33
:1021E0000F21012000F02EFE022000F07FFE3D2195
:1021F000112000F027FE1E212D2000F023FE0021DB
:102200002C2000F01FFE8D212A2000F01BFE3E2115
:102210002B2000F017FE4021152000F013FE802136
:102220003320FEF751FA4021152000F00BFE00206C
:1022300010BD00000010014070B588B00546932025
:102240008DF8080070208DF8090000208DF80E0030
:1022500000240BE0295D02AAA01C11549DF80E0079
:10226000295D48408DF80E00601CC4B2042CF1DBDF
:102270000DF10F02072102A8FEF7F0F90821084628
:10228000FEF722FA07A802AB092202A900900C204F
:10229000FFF79EFE064626B90798182801D10026AA
:1022A00000E00226304608B070BDF0B587B00646A3
:1022B0000F46A0208DF804008DF805600DF1060290
:1022C000022101A8FEF7CAF906A801AB042201A960
:1022D00000900C20FFF77CFE054645B906980428BF
:1022E00005D19DF8040000F00F000A2800D0022557
:1022F0000DBB002404E0385D01A90855601CC4B280
:10230000102CF8DB05AA102101A8FEF7A7F906A8F2
:1023100001AB122201A900900C20FFF759FE0546DF
:1023200045B90698042805D19DF8040000F00F0077
:102330000A2800D00225284607B0F0BD70470000EB
:1023400010B500F035F800F067FA322000F0CEFD4D
:10235000FFF72CFF0A2000F0C9FDFFF7B7FD0A20A8
:1023600000F0C4FDFFF7B8FD01A0FDF759FF10BD57
:10237000524649442D4D46524335323220E5889D20
:10238000E5A78BE58C96E5AE8CE688905C6E507286
:10239000657373204B455930204F72204B4559319E
:1023A00020546F2053746172742E2E2E0D0A00007B
:1023B00000B585B000BF00BF1748806940F0040039
:1023C000154988610846806900F00400009000BF4C
:1023D00000BF00BF00BF00BF0846806940F0040096
:1023E00088610846806900F00400009000BF00BFCB
:1023F00000BF202001900120029003900320049050
:1024000001A90648FEF758FA1020019001A90448D6
:10241000FEF752FA05B000BD001002400010014066
:10242000000801402DE9F84306460C4617467A4954
:102430005220FFF790FE002876D177484078764901
:10244000097840EA0128B8F5006F1CD006DCB8F521
:10245000007F14D0B8F5806F1DD10CE0B8F5884F1F
:1024600005D0A8F588400338002814D10FE06BA0F0
:10247000FDF7D6FE13E06FA0FDF7D2FE0FE072A0CD
:10248000FDF7CEFE0BE075A0FDF7CAFE07E078A0D1
:10249000FDF7C6FE03E07BA0FDF7C2FE00BF00BF54
:1024A0007D48FFF726FD002876D17B4800787B49E0
:1024B000097888421AD17848407878494978884222
:1024C00014D1754880787549897888420ED1724850
:1024D000C0787249C978884208D1012070490870D3
:1024E000084601786FA0FDF79BFE21E06A4800785E
:1024F0007349097888421BD1674840787049497808
:10250000884215D1644880786D49897888420FD116
:102510006148C0786A49C978884209D10220604977
:1025200008700846017800E069E066A0FDF778FED3
:102530005948C0780090584883784278017868A05C
:10254000FDF76EFE5448FFF777FE00284FD1524B3F
:102550006C4A31466020FFF704FD002843D1012C6E
:102560001BD169493046FFF7CCFD002846D167A052
:10257000FDF756FE31466AA0FDF752FE002505E044
:102580006148415D6BA0FDF74BFE6D1C102DF7DB24
:102590003BA0FDF745FE31E02DE0022C2ED139465F
:1025A0003046FFF782FE002828D1082000F09EFC6C
:1025B00055493046FFF7A5FD00281FD15FA0FDF764
:1025C0002FFE314656A0FDF72BFE002505E04E48B4
:1025D000415D58A0FDF724FE6D1C102DF7DB28A0EF
:1025E000FDF71EFE0AE059A0FDF71AFE06E05CA00A
:1025F000FDF716FE02E05FA0FDF712FE02E063A009
:10260000FDF70EFEFFF762FC0A2000F06FFCFFF7FB
:1026100063FCBDE8F88300001F0000200D0A4D692F
:102620006661726520556C7472614C696768740DDF
:102630000A0000000D0A4D6966617265204F6E65E3
:1026400028533530290D0A000D0A4D6966617265FF
:10265000204F6E6528533730290D0A000D0A4D6949
:10266000666172652050726F2858290D0A000000BB
:102670000D0A4D696661726520444553466972656D
:102680000D0A00000D0A556E6B6E6F776E20436168
:1026900072640D0A000000001B00002021000020D1
:1026A0002900002054686520557365722069733ACB
:1026B0002025642C20426C756520636172640000E3
:1026C0002500002054686520557365722069733AAF
:1026D0002025642C2057686974652063617264004A
:1026E0000D0A636172645F49443A20253032583ADA
:1026F000253032583A253032583A253032580D0AB2
:10270000000000002A000020A00500200AE8AFBB5E
:10271000E58F96E7BB93E69E9C3A200A00000000F6
:10272000626C6F636B20256420646174653A0D0AE6
:102730000000000025303258200000000AE586998C
:10274000E585A5E5AE8CE688900A00000D0AE9AAA9
:102750008CE8AF81E5A4B1E8B4A50D0A0000000043
:102760000D0AE98089E58DA1E5A4B1E8B4A50D0ABB
:10277000000000000D0AE998B2E586B2E6929EE5F7
:10278000A4B1E8B4A55C720A000000000D0AE5AF30
:10279000BBE58DA1E5A4B1E8B4A50D0A00000000D9
:1027A00008B508490968C9084FF47A72B1FBF2F11B
:1027B0004143009100BF00BF00994A1E00920029CA
:1027C000F9D108BD0C0000201CB504460020009083
:1027D0007E2000EA440040F080000190012000F0DB
:1027E00085FB002210210A48FEF70EFA012201A9FA
:1027F000084800F0E3F801226946064800F05DF859
:10280000012210210248FEF7FFF99DF800001CBDCF
:10281000000801400030014010B51248124908601C
:102820004FF48270486000210F488160C1600161EF
:1028300041614FF4007181613821C1610021016261
:10284000416281620721C162FEF7FCFD0648006813
:10285000006840F04000044909680860FF2000F06B
:1028600005F810BD003001404801002001B582B0DC
:102870004FF47A70012301AA02A900900248FEF7E2
:102880008DFE9DF804000EBD48010020F8B50446F9
:102890000D4616462B46002280212046009600F069
:1028A00039F828B1606D40F0200060650320F8BD64
:1028B0000020FCE701460120704730B503460C4676
:1028C000002121E0FF20D86007E0491C44F6206089
:1028D000814202DD4FF0FF3030BD986800F0020009
:1028E0000028F2D0002107E0491C44F62060814214
:1028F00002DD4FF0FF30EFE7986800F0010000289C
:10290000F2D0D86804F8010B101EA2F10102D9D14F
:1029100000BFE1E72DE9F04104460E4617461D468B
:10292000DDF818803EE0681CD8B3FEF773F9A0EB21
:102930000800A84200D2A5BB2068406820F0E00053
:10294000216848606068B0F5827F0DD1A068B0F55D
:10295000004F03D0A068B0F5806F05D120680068F3
:1029600020F0400021680860A06AB0F5005F0DD13A
:1029700000BF2068006820F40050216808602068CB
:10298000006840F400502168086000BF012084F80E
:10299000510000BF002084F8500000BF0320BDE8B4
:1029A000F081FFE7206880683040B04201D101200B
:1029B00000E00020B842B6D10020F0E730B5034671
:1029C0000C46002122E007E0491C44F620608142C9
:1029D00002DD4FF0FF3030BD986800F002000028A3
:1029E000F2D014F8010BD860002109E098689860D3
:1029F000491C44F62060814202DD4FF0FF30EAE7D7
:102A0000986800F001000028F0D0D868101EA2F1EC
:102A10000102D8D100BFDEE7704770B505460C460D
:102A200000262846FFF7D0FE064646EA040128465F
:102A300000F008FA70BD30B58FB00546002428219B
:102A400005A8FDF725FD14216846FDF721FD0120AD
:102A50000590000406900020079002200C90C1030E
:102A60000D910E9505A8FEF7BBFA04460CB100BF08
:102A7000FEE70F20009002200190002002904FF40A
:102A8000806003900020049002216846FEF772F9EE
:102A900004460CB100BFFEE70FB030BD10B5FEF725
:102AA000BFF810BD1148006840F001000F490860F0
:102AB000084640680E4908400C49486008460068CE
:102AC0000C490840094908600846006820F4802045
:102AD00008600846406820F4FE0048604FF41F007C
:102AE0008860C80304490860704700000010024075
:102AF0000000FFF8FFFFF6FE08ED00E070B50546A8
:102B00006C6A0020E085E0842046FEF7ECFE70BD94
:102B10000168C96821F490710268D160016849694F
:102B200021F0010102685161202180F83A107047BC
:102B300010B504462068C06820F040002168C860D5
:102B4000202084F839002046FFF788F8002010BDC7
:102B500070B5044694F83A0022284AD1A068B0F52E
:102B6000805F13D1A56A206940B920684068C0F32E
:102B700008002880A06A801CA06219E020684068D4
:102B8000C0B22880A06A401CA06211E0206938B958
:102B900020684068C1B2A26A501CA062117007E0B0
:102BA0002068406800F07F01A26A501CA06211708A
:102BB000E08D401E80B2E085C8B92068C06820F072
:102BC00020002168C8602068C06820F480702168F7
:102BD000C8602068406920F0010021684861202019
:102BE00084F83A002046FEF7F5FF002070BD002073
:102BF000FCE70220FAE7000070B504462168096985
:102C000021F44051E2681143226811612269A168F0
:102C10001143626941EA02052168C96841F20C6208
:102C2000914329432268D1602168496921F44071A8
:102C3000A269114322685161564A2168914254D1D8
:102C4000FEF774F900EBC00101EB0011626892001D
:102C5000B1FBF2F100EBC00202EB001263689B00D3
:102C6000B2FBF3F26423B2FBF3F202EBC20303EB19
:102C70000212A1EB8201322202EB01116422B1FBAC
:102C8000F2F101F0F00100EBC00202EB0012636808
:102C90009B00B2FBF3F26423B2FBF3F201EB0212EE
:102CA00000EBC00101EB001163689B00B1FBF3F185
:102CB00000EBC00303EB00136668B600B3FBF6F34A
:102CC0006426B3FBF6F303EBC30606EB0313A1EB99
:102CD0008301322303EB01116423B1FBF3F101F013
:102CE0000F0111442268916053E0FEF70FF900EBE9
:102CF000C00101EB001162689200B1FBF2F100EB40
:102D0000C00202EB001263689B00B2FBF3F2642383
:102D1000B2FBF3F202EBC20303EB0212A1EB82015E
:102D2000322202EB01116422B1FBF2F101F0F00159
:102D300000EBC00202EB001263689B00B2FBF3F2EF
:102D40006423B2FBF3F201EB021200EBC00101EBD2
:102D5000001163689B00B1FBF3F100EBC00303EBD0
:102D600000136668B600B3FBF6F36426B3FBF6F314
:102D700003EBC30606EB0313A1EB8301322303EB42
:102D800001116423B1FBF3F101F00F01114422683A
:102D9000916070BD00380140014691F8390021284A
:102DA0002CD18868B0F5805F0FD10A6A1088C0F313
:102DB00008000B685860086918B9086A801C086226
:102DC00009E0086A401C086205E00B6A581C0862AA
:102DD00018780B685860C88C401E80B2C88458B9F7
:102DE0000868C06820F080000B68D8600868C06878
:102DF00040F040000B68D860002070470220FCE7DC
:102E000010B500240C48FEF779FD00BF01E0641CFA
:102E100000BF0948FEF768FD2028F8D100BF002454
:102E200001E0641C00BF012204490348FEF79AFE3A
:102E30000028F6D100BF10BD080100201A000020B4
:102E400000BFFEE7F8B504460D46002000907E2046
:102E500000EA44068DF800608DF80150012000F072
:102E600045F8002210210748FDF7CEFE02226946F0
:102E70000548FFF7A3FD012210210248FDF7C4FE1B
:102E8000F8BD000000080140003001400248006821
:102E9000C0F30220704700000CED00E010B50028E0
:102EA00004DB0A07130E054A135406E00A07140E42
:102EB000034A00F00F031B1FD45410BD00E400E0D0
:102EC00018ED00E030380A2801D2012070470020B8
:102ED000704700BF7047000010B504460420FEF79D
:102EE000D4FC0148046010BD1000002030B5044639
:102EF000002504E04FF47A7000F004F86D1CA54240
:102F0000F8D330BD70B5034600224FF0E026756956
:102F10000D4E366803FB06F44FF0E026B16910E071
:102F20004FF0E026B06988420BD0884202D20E1AD8
:102F3000324402E02E1A0E4432440146A24200D32B
:102F400000E0EDE700BF70BD1000002000BF054AA3
:102F5000126802F04002002AF9D0C2B2014B1B1DD8
:102F60001A6070470038014000B585B000BF1848AE
:102F7000806940F00400164988610846806900F0C5
:102F80000400009000BF00BF00BF0846806940F009
:102F9000400088610846806900F04000009000BF52
:102FA00000BF01200190002002900220039001A99F
:102FB0000848FDF781FC18200190002002900120B4
:102FC000039001A90448FDF777FC05B000BD00009F
:102FD00000100240000801400018014010B5012116
:102FE0002648FDF709FE012814D10A20FDF750FC00
:102FF00001212248FDF700FE01283DD100BF01213B
:103000001E48FDF7F9FD0128F9D00A20FDF740FC24
:10301000032010BD10211A48FDF7EEFD98B90A20D3
:10302000FDF736FC10211648FDF7E6FD20BB00BF7A
:1030300010211348FDF7E0FD0028F9D00A20FDF724
:1030400027FC0120E5E708210D48FDF7D5FD98B9DB
:103050000A20FDF71DFC08210948FDF7CDFD58B9F0
:1030600000BF08210648FDF7C7FD0028F9D00A2057
:10307000FDF70EFC0220CCE70020CAE70008014063
:103080000018014000B585B000BF1B48806940F0C2
:103090000800194988610846806900F0080000901E
:1030A00000BF00BF00BF0846806940F04000886153
:1030B0000846806900F04000009000BF00BF20205B
:1030C00001900120029003900320049001A90B4875
:1030D000FDF7F2FB2020019001A90948FDF7ECFB68
:1030E000012220210548FDF78FFD012220210448FF
:1030F000FDF78AFD05B000BD00100240000C014044
:1031000000180140FDF798FD4820FFF7E5FE4FF459
:10311000E010FFF790FCFFF7B5FFFFF725FF4FF436
:10312000E13000F027F8FEF7B7FDFFF709F91CE0E2
:10313000FFF754FF0446012C05D10C4A012105205C
:10314000FFF770F906E0022C04D1084A022105209D
:10315000FFF768F96420FFF7C9FE0548006808B961
:10316000012000E0002002490860E1E73000002073
:103170009481214210B5044609480A49086008466E
:10318000446000218160C160016181610C21416165
:10319000FEF75AFC012204490248FEF7E3FC10BD89
:1031A00000380140080100201A0000200000000043
:1031B00000000000010203040607080900000000E7
:1031C0000102030430313233343536373839414265
:1031D0004344454640305800303132333435363779
:1031E0003839616263646566403078000400000825
:1031F00000000000000000020001000010000000BC
:103200002032000800000020300000006C0100089F
:103210005032000830000020E00B00008801000858
:103220000000000010000000010000000024F40075
:10323000000000000000000000000000000000008E
:1032400000C3B237C5A3093CFB00FFFFFFFFFFFF30
:04000005080001DD11
:00000001FF
